{
  "contractName": "Coin",
  "abi": [
    {
      "constant": true,
      "inputs": [],
      "name": "minter",
      "outputs": [
        {
          "name": "",
          "type": "address"
        }
      ],
      "payable": false,
      "stateMutability": "view",
      "type": "function"
    },
    {
      "constant": true,
      "inputs": [
        {
          "name": "",
          "type": "address"
        }
      ],
      "name": "balances",
      "outputs": [
        {
          "name": "",
          "type": "uint256"
        }
      ],
      "payable": false,
      "stateMutability": "view",
      "type": "function"
    },
    {
      "inputs": [],
      "payable": false,
      "stateMutability": "nonpayable",
      "type": "constructor"
    },
    {
      "anonymous": false,
      "inputs": [
        {
          "indexed": false,
          "name": "from",
          "type": "address"
        },
        {
          "indexed": false,
          "name": "to",
          "type": "address"
        },
        {
          "indexed": false,
          "name": "amount",
          "type": "uint256"
        }
      ],
      "name": "Sent",
      "type": "event"
    },
    {
      "constant": false,
      "inputs": [
        {
          "name": "receiver",
          "type": "address"
        },
        {
          "name": "amount",
          "type": "uint256"
        }
      ],
      "name": "mint",
      "outputs": [],
      "payable": false,
      "stateMutability": "nonpayable",
      "type": "function"
    },
    {
      "constant": false,
      "inputs": [
        {
          "name": "receiver",
          "type": "address"
        },
        {
          "name": "amount",
          "type": "uint256"
        }
      ],
      "name": "send",
      "outputs": [],
      "payable": false,
      "stateMutability": "nonpayable",
      "type": "function"
    },
    {
      "constant": false,
      "inputs": [
        {
          "name": "pint",
          "type": "int256"
        },
        {
          "name": "pstring",
          "type": "string"
        }
      ],
      "name": "func",
      "outputs": [
        {
          "name": "",
          "type": "bool"
        }
      ],
      "payable": false,
      "stateMutability": "nonpayable",
      "type": "function"
    }
  ],
  "bytecode": "0x608060405260016000806101000a81548160ff0219169083151502179055506040805190810160405280600681526020017f736972656e650000000000000000000000000000000000000000000000000000815250600190805190602001906100699291906100c0565b5034801561007657600080fd5b50600033600260006101000a81548173ffffffffffffffffffffffffffffffffffffffff021916908373ffffffffffffffffffffffffffffffffffffffff16021790555050610165565b828054600181600116156101000203166002900490600052602060002090601f016020900481019282601f1061010157805160ff191683800117855561012f565b8280016001018555821561012f579182015b8281111561012e578251825591602001919060010190610113565b5b50905061013c9190610140565b5090565b61016291905b8082111561015e576000816000905550600101610146565b5090565b90565b610575806101746000396000f30060806040526004361061006d576000357c0100000000000000000000000000000000000000000000000000000000900463ffffffff16806307546172146100725780630d10594a146100c957806327e235e31461015457806340c10f19146101ab578063d0679d34146101f8575b600080fd5b34801561007e57600080fd5b50610087610245565b604051808273ffffffffffffffffffffffffffffffffffffffff1673ffffffffffffffffffffffffffffffffffffffff16815260200191505060405180910390f35b3480156100d557600080fd5b5061013a60048036038101908080359060200190929190803590602001908201803590602001908080601f016020809104026020016040519081016040528093929190818152602001838380828437820191505050505050919291929050505061026b565b604051808215151515815260200191505060405180910390f35b34801561016057600080fd5b50610195600480360381019080803573ffffffffffffffffffffffffffffffffffffffff1690602001909291905050506102ca565b6040518082815260200191505060405180910390f35b3480156101b757600080fd5b506101f6600480360381019080803573ffffffffffffffffffffffffffffffffffffffff169060200190929190803590602001909291905050506102e2565b005b34801561020457600080fd5b50610243600480360381019080803573ffffffffffffffffffffffffffffffffffffffff169060200190929190803590602001909291905050506103b3565b005b600260009054906101000a900473ffffffffffffffffffffffffffffffffffffffff1681565b6000806000806001925082156102be57600091505b60058210156102bd57600586131561029b57600090506102b0565b82806102a5575060005b156102af576102b0565b5b8180600101925050610280565b5b82935050505092915050565b60036020528060005260406000206000915090505481565b600080600080600080600260009054906101000a900473ffffffffffffffffffffffffffffffffffffffff1673ffffffffffffffffffffffffffffffffffffffff163373ffffffffffffffffffffffffffffffffffffffff16141515610347576103a9565b6005955060011561035b5760009450600592505b86600360008a73ffffffffffffffffffffffffffffffffffffffff1673ffffffffffffffffffffffffffffffffffffffff168152602001908152602001600020600082825401925050819055505b5050505050505050565b600080600083600360003373ffffffffffffffffffffffffffffffffffffffff1673ffffffffffffffffffffffffffffffffffffffff16815260200190815260200160002054101561040457610542565b6001925083600360003373ffffffffffffffffffffffffffffffffffffffff1673ffffffffffffffffffffffffffffffffffffffff1681526020019081526020016000206000828254039250508190555083600360008773ffffffffffffffffffffffffffffffffffffffff1673ffffffffffffffffffffffffffffffffffffffff168152602001908152602001600020600082825401925050819055507f3990db2d31862302a685e8086b5755072a6e2b5b780af1ee81ece35ee3cd3345338686604051808473ffffffffffffffffffffffffffffffffffffffff1673ffffffffffffffffffffffffffffffffffffffff1681526020018373ffffffffffffffffffffffffffffffffffffffff1673ffffffffffffffffffffffffffffffffffffffff168152602001828152602001935050505060405180910390a15b50505050505600a165627a7a72305820cfcd2ed1a3812f9ca137fa99d4e0ec3f0e7ccec7309eb58083196ec9bd0053f30029",
  "source": "pragma solidity ^0.4.21;\n\ncontract Coin {\n    // The keyword \"public\" makes those variables\n    // readable from outside.\n    bool gboolvar = true;\n    string gstrvar = \"sirene\";\n    address public minter;\n    mapping (address => uint) public balances;\n    uint256[] garrvar;\n\n    // Events allow light clients to react on changes efficiently.\n    event Sent(address from, address to, uint amount);\n\n    // This is the constructor whose code is run only when the contract is created.\n    function Coin() public {\n        minter = msg.sender;\n        uint[] arrvar;\n    }\n\n    function mint(address receiver, uint amount) public {\n        if (msg.sender != minter) return;\n        uint256 intnvar = 5;\n        if(true) {\n            bool nbool = false;\n            if(false){\n                string nstring;\n            }\n            int nint = 5;\n            if(true){\n               uint256[] arrvar; \n            }\n        }\n        string strvar;\n        balances[receiver] += amount;\n    }\n\n    function send(address receiver, uint amount) public {\n        if (balances[msg.sender] < amount) return;\n        bool bvar = true;\n        balances[msg.sender] -= amount;\n        int intvar;\n        if (5 == 5){\n            uint[] narrvar;\n        }\n        balances[receiver] += amount;\n        emit Sent(msg.sender, receiver, amount);\n    }\n    \n    function func(int pint, string pstring) public returns (bool) {\n        bool fbool = true;\n        if (fbool) {\n            for(uint i = 0; i < 5; i++) {\n                if (pint > 5) {\n                    bool a = false;\n                    continue;\n                } \n                else {\n                    if (fbool || false) {\n                        continue;\n                    }\n                } \n            }\n        }\n        \n        return fbool;\n    } \n}",
  "sourcePath": "/home/pesho/D/Uni_work/SS_18/Program Analysis/Coursework/truffle_test/contracts/Coin.sol",
  "compiler": {
    "name": "solc",
    "version": "0.4.23+commit.124ca40d.Emscripten.clang"
  },
  "schemaVersion": "2.0.0",
  "updatedAt": "2018-05-15T20:04:36.929Z"
}