{
  "contractName": "Token",
  "abi": [
    {
      "payable": true,
      "stateMutability": "payable",
      "type": "fallback"
    },
    {
      "constant": false,
      "inputs": [
        {
          "name": "tokenHolder",
          "type": "address"
        }
      ],
      "name": "balanceOf",
      "outputs": [
        {
          "name": "",
          "type": "uint256"
        }
      ],
      "payable": false,
      "stateMutability": "nonpayable",
      "type": "function"
    },
    {
      "constant": false,
      "inputs": [],
      "name": "sell",
      "outputs": [],
      "payable": false,
      "stateMutability": "nonpayable",
      "type": "function"
    },
    {
      "constant": false,
      "inputs": [],
      "name": "eth",
      "outputs": [
        {
          "name": "",
          "type": "uint256"
        }
      ],
      "payable": false,
      "stateMutability": "nonpayable",
      "type": "function"
    }
  ],
  "bytecode": "0x6080604052670de0b6b3a764000060015534801561001c57600080fd5b506101ef8061002c6000396000f300608060405260043610610057576000357c0100000000000000000000000000000000000000000000000000000000900463ffffffff168063457100741461005957806370a08231146100705780638c7c9e0c146100c7575b005b34801561006557600080fd5b5061006e6100f2565b005b34801561007c57600080fd5b506100b1600480360381019080803573ffffffffffffffffffffffffffffffffffffffff1690602001909291905050506101b7565b6040518082815260200191505060405180910390f35b3480156100d357600080fd5b506100dc6101be565b6040518082815260200191505060405180910390f35b60008060003373ffffffffffffffffffffffffffffffffffffffff1673ffffffffffffffffffffffffffffffffffffffff1681526020019081526020016000205490503373ffffffffffffffffffffffffffffffffffffffff16600154820260405160006040518083038185875af192505050151561017057600080fd5b60008060003373ffffffffffffffffffffffffffffffffffffffff1673ffffffffffffffffffffffffffffffffffffffff1681526020019081526020016000208190555050565b6000919050565b6000905600a165627a7a723058204f552bd3fca69baf1453b56251eee545c2c93b2579af9cfe8666016b2f018e7a0029",
  "source": "contract Token {\n\n  mapping(address => uint) balances;\n  uint tokenPrice = 10**18; // 1 ETH = 1 token = 10^18 Wei\n\n  // The sender receives tokens based on the amount of \n  // ether send by the transaction\n  function () public payable {\n\t//\n  }\n  \n  // Returns the amount of tokens owned by the sender\n  function balanceOf(address tokenHolder) public returns(uint){\n    //\n  }\n\n  // Sets the sender's balance to 0\n  // Refunds the sender based on the sender's balance\n  function sell() public {\n    // refund sender via call.value()()\n    uint tokens = balances[msg.sender];   \n    require(msg.sender.call.value(tokens * tokenPrice)());\n    // update balance\n    balances[msg.sender] = 0;\n  }\n  \n  // Returns the amount of ether owned by the contract\n  function eth() public returns(uint) {\n      //\n  }\n\n}\n",
  "sourcePath": "/home/pesho/D/Uni_work/SS_18/Program Analysis/Coursework/truffle_test/contracts/Token.sol",
  "compiler": {
    "name": "solc",
    "version": "0.4.23+commit.124ca40d.Emscripten.clang"
  },
  "schemaVersion": "2.0.0",
  "updatedAt": "2018-04-20T14:38:09.653Z"
}