{
  "contractName": "WhiteList",
  "abi": [
    {
      "constant": true,
      "inputs": [
        {
          "name": "",
          "type": "address"
        }
      ],
      "name": "whiteList",
      "outputs": [
        {
          "name": "",
          "type": "bool"
        }
      ],
      "payable": false,
      "stateMutability": "view",
      "type": "function"
    },
    {
      "constant": false,
      "inputs": [],
      "name": "kill",
      "outputs": [],
      "payable": false,
      "stateMutability": "nonpayable",
      "type": "function"
    },
    {
      "constant": true,
      "inputs": [],
      "name": "owner",
      "outputs": [
        {
          "name": "",
          "type": "address"
        }
      ],
      "payable": false,
      "stateMutability": "view",
      "type": "function"
    },
    {
      "constant": true,
      "inputs": [],
      "name": "totalWhiteListed",
      "outputs": [
        {
          "name": "",
          "type": "uint256"
        }
      ],
      "payable": false,
      "stateMutability": "view",
      "type": "function"
    },
    {
      "constant": false,
      "inputs": [
        {
          "name": "newOwner",
          "type": "address"
        }
      ],
      "name": "transferOwnership",
      "outputs": [],
      "payable": false,
      "stateMutability": "nonpayable",
      "type": "function"
    },
    {
      "anonymous": false,
      "inputs": [
        {
          "indexed": true,
          "name": "user",
          "type": "address"
        },
        {
          "indexed": false,
          "name": "whiteListedNum",
          "type": "uint256"
        }
      ],
      "name": "LogWhiteListed",
      "type": "event"
    },
    {
      "anonymous": false,
      "inputs": [
        {
          "indexed": false,
          "name": "whiteListedNum",
          "type": "uint256"
        }
      ],
      "name": "LogWhiteListedMultiple",
      "type": "event"
    },
    {
      "anonymous": false,
      "inputs": [
        {
          "indexed": true,
          "name": "user",
          "type": "address"
        }
      ],
      "name": "LogRemoveWhiteListed",
      "type": "event"
    },
    {
      "constant": true,
      "inputs": [
        {
          "name": "_user",
          "type": "address"
        }
      ],
      "name": "isWhiteListed",
      "outputs": [
        {
          "name": "",
          "type": "bool"
        }
      ],
      "payable": false,
      "stateMutability": "view",
      "type": "function"
    },
    {
      "constant": false,
      "inputs": [
        {
          "name": "_user",
          "type": "address"
        }
      ],
      "name": "removeFromWhiteList",
      "outputs": [
        {
          "name": "",
          "type": "bool"
        }
      ],
      "payable": false,
      "stateMutability": "nonpayable",
      "type": "function"
    },
    {
      "constant": false,
      "inputs": [
        {
          "name": "_user",
          "type": "address"
        }
      ],
      "name": "addToWhiteList",
      "outputs": [
        {
          "name": "",
          "type": "bool"
        }
      ],
      "payable": false,
      "stateMutability": "nonpayable",
      "type": "function"
    },
    {
      "constant": false,
      "inputs": [
        {
          "name": "_users",
          "type": "address[]"
        }
      ],
      "name": "addToWhiteListMultiple",
      "outputs": [
        {
          "name": "",
          "type": "bool"
        }
      ],
      "payable": false,
      "stateMutability": "nonpayable",
      "type": "function"
    }
  ],
  "bytecode": "0x6080604052336000806101000a81548173ffffffffffffffffffffffffffffffffffffffff021916908373ffffffffffffffffffffffffffffffffffffffff1602179055506109b1806100536000396000f300608060405260043610610099576000357c0100000000000000000000000000000000000000000000000000000000900463ffffffff16806301bf66481461009e578063372c12b1146100f957806341c0e1b51461015457806347ee03941461016b5780636f9170f6146101c65780638da5cb5b146102215780639fec8e3b14610278578063a07b206f146102cb578063f2fde38b146102f6575b600080fd5b3480156100aa57600080fd5b506100df600480360381019080803573ffffffffffffffffffffffffffffffffffffffff169060200190929190505050610339565b604051808215151515815260200191505060405180910390f35b34801561010557600080fd5b5061013a600480360381019080803573ffffffffffffffffffffffffffffffffffffffff16906020019092919050505061043e565b604051808215151515815260200191505060405180910390f35b34801561016057600080fd5b5061016961045e565b005b34801561017757600080fd5b506101ac600480360381019080803573ffffffffffffffffffffffffffffffffffffffff1690602001909291905050506104ef565b604051808215151515815260200191505060405180910390f35b3480156101d257600080fd5b50610207600480360381019080803573ffffffffffffffffffffffffffffffffffffffff169060200190929190505050610664565b604051808215151515815260200191505060405180910390f35b34801561022d57600080fd5b506102366106ba565b604051808273ffffffffffffffffffffffffffffffffffffffff1673ffffffffffffffffffffffffffffffffffffffff16815260200191505060405180910390f35b34801561028457600080fd5b506102b16004803603810190808035906020019082018035906020019190919293919293905050506106df565b604051808215151515815260200191505060405180910390f35b3480156102d757600080fd5b506102e06108af565b6040518082815260200191505060405180910390f35b34801561030257600080fd5b50610337600480360381019080803573ffffffffffffffffffffffffffffffffffffffff1690602001909291905050506108b5565b005b600060011515600160008473ffffffffffffffffffffffffffffffffffffffff1673ffffffffffffffffffffffffffffffffffffffff16815260200190815260200160002060009054906101000a900460ff16151514151561039a57600080fd5b6000600160008473ffffffffffffffffffffffffffffffffffffffff1673ffffffffffffffffffffffffffffffffffffffff16815260200190815260200160002060006101000a81548160ff0219169083151502179055508173ffffffffffffffffffffffffffffffffffffffff167fb31567d35688e40dfdd4fc7b1d091d7e49ac4f663c6db965b53677d309530f1760405160405180910390a260019050919050565b60016020528060005260406000206000915054906101000a900460ff1681565b6000809054906101000a900473ffffffffffffffffffffffffffffffffffffffff1673ffffffffffffffffffffffffffffffffffffffff163373ffffffffffffffffffffffffffffffffffffffff1614156104ed576000809054906101000a900473ffffffffffffffffffffffffffffffffffffffff1673ffffffffffffffffffffffffffffffffffffffff16ff5b565b60008060009054906101000a900473ffffffffffffffffffffffffffffffffffffffff1673ffffffffffffffffffffffffffffffffffffffff163373ffffffffffffffffffffffffffffffffffffffff16141561065f5760011515600160008473ffffffffffffffffffffffffffffffffffffffff1673ffffffffffffffffffffffffffffffffffffffff16815260200190815260200160002060009054906101000a900460ff16151514151561065a5760018060008473ffffffffffffffffffffffffffffffffffffffff1673ffffffffffffffffffffffffffffffffffffffff16815260200190815260200160002060006101000a81548160ff0219169083151502179055506002600081548092919060010191905055508173ffffffffffffffffffffffffffffffffffffffff167f88eb615cbff4540422d181389333a5c75e3d5eb98dd55fb176e3a615ddfd0f1f6002546040518082815260200191505060405180910390a25b600190505b919050565b6000600160008373ffffffffffffffffffffffffffffffffffffffff1673ffffffffffffffffffffffffffffffffffffffff16815260200190815260200160002060009054906101000a900460ff169050919050565b6000809054906101000a900473ffffffffffffffffffffffffffffffffffffffff1681565b6000806000809054906101000a900473ffffffffffffffffffffffffffffffffffffffff1673ffffffffffffffffffffffffffffffffffffffff163373ffffffffffffffffffffffffffffffffffffffff1614156108a857600090505b8383905081101561086a576001151560016000868685818110151561075d57fe5b9050602002013573ffffffffffffffffffffffffffffffffffffffff1673ffffffffffffffffffffffffffffffffffffffff1673ffffffffffffffffffffffffffffffffffffffff16815260200190815260200160002060009054906101000a900460ff16151514151561085f57600180600086868581811015156107de57fe5b9050602002013573ffffffffffffffffffffffffffffffffffffffff1673ffffffffffffffffffffffffffffffffffffffff1673ffffffffffffffffffffffffffffffffffffffff16815260200190815260200160002060006101000a81548160ff0219169083151502179055506002600081548092919060010191905055505b80600101905061073c565b7f9075b10cfdcbb4feaac9b18054833db2bdacc10263b692174de5b561d34e2f4f6002546040518082815260200191505060405180910390a1600191505b5092915050565b60025481565b6000809054906101000a900473ffffffffffffffffffffffffffffffffffffffff1673ffffffffffffffffffffffffffffffffffffffff163373ffffffffffffffffffffffffffffffffffffffff16141561098257600073ffffffffffffffffffffffffffffffffffffffff168173ffffffffffffffffffffffffffffffffffffffff1614151561098157806000806101000a81548173ffffffffffffffffffffffffffffffffffffffff021916908373ffffffffffffffffffffffffffffffffffffffff1602179055505b5b505600a165627a7a72305820c64222df5166e791a4696dc44be117fb2af650c29304a1fe5a1228ab4de6ea340029",
  "source": "pragma solidity ^ 0.4.16;\n\n\ncontract Ownable {\n    address public owner;\n\n    function Ownable() public {\n        owner = msg.sender;\n    }\n\n    function transferOwnership(address newOwner) public onlyOwner {\n        if (newOwner != address(0)) \n            owner = newOwner;\n    }\n\n    function kill() public {\n        if (msg.sender == owner) \n            selfdestruct(owner);\n    }\n\n    modifier onlyOwner() {\n        if (msg.sender == owner)\n            _;\n    }\n}\n\n\n\n// Whitelist smart contract\n// This smart contract keeps list of addresses to whitelist\ncontract WhiteList is Ownable {\n\n    \n    mapping(address => bool) public whiteList;\n    uint public totalWhiteListed; //white listed users number\n\n    event LogWhiteListed(address indexed user, uint whiteListedNum);\n    event LogWhiteListedMultiple(uint whiteListedNum);\n    event LogRemoveWhiteListed(address indexed user);\n\n\n    // @notice it will return status of white listing\n    // @return true if user is white listed and false if is not\n    function isWhiteListed(address _user) public view returns (bool) {\n\n        return whiteList[_user]; \n    }\n\n    // @notice it will remove whitelisted user\n    // @param _contributor {address} of user to unwhitelist\n    function removeFromWhiteList(address _user) external returns (bool) {\n       \n        require(whiteList[_user] == true);\n        whiteList[_user] = false;\n        LogRemoveWhiteListed(_user);\n        return true;\n    }\n\n    // @notice it will white list one member\n    // @param _user {address} of user to whitelist\n    // @return true if successful\n    function addToWhiteList(address _user) onlyOwner() external returns (bool) {\n\n        if (whiteList[_user] != true) {\n            whiteList[_user] = true;\n            totalWhiteListed++;\n            LogWhiteListed(_user, totalWhiteListed);            \n        }\n        return true;\n    }\n\n    // @notice it will white list multiple members\n    // @param _user {address[]} of users to whitelist\n    // @return true if successful\n    function addToWhiteListMultiple(address[] _users) onlyOwner() external returns (bool) {\n\n         for (uint i = 0; i < _users.length; ++i) {\n\n            if (whiteList[_users[i]] != true) {\n                whiteList[_users[i]] = true;\n                totalWhiteListed++;                          \n            }           \n        }\n         LogWhiteListedMultiple(totalWhiteListed); \n         return true;\n    }\n}",
  "sourcePath": "/home/pesho/D/Uni_work/SS_18/Program_Analysis/Coursework/truffle_test/contracts/wl.sol",
  "compiler": {
    "name": "solc",
    "version": "0.4.23+commit.124ca40d.Emscripten.clang"
  },
  "schemaVersion": "2.0.0",
  "updatedAt": "2018-05-20T15:33:52.380Z"
}